:020000040800F2
:10000000000002205506000851060008AD34000823
:1000100051060008510600085106000800000000C3
:100020000000000000000000000000005106000871
:100030005106000800000000510600089D34000829
:100040005106000851060008510600085106000834
:100050005106000851060008510600085106000824
:10006000510600085106000851060008F530000846
:1000700001310008452600080D310008193100083B
:100080005106000841890008510600085106000881
:1000900051060008510600085106000851060008E4
:1000A00051060008510600085106000851060008D4
:1000B000510600085106000851060008658900082D
:1000C0005106000871890008510600085106000811
:1000D00051060008510600085106000851060008A4
:1000E00051060008510600080000000051060008F3
:1000F0005106000851060008510600085106000884
:100100005106000851060008510600085106000873
:100110005106000851060008510600085106000863
:100120005106000851060008510600085106000853
:100130005106000851060008510600085106000843
:1001400000000000000000000000000000000000AF
:100150005106000851060008510600085106000823
:100160007D89000851060008510600085106000864
:100170005106000851060008510600085106000803
:1001800051060008510600085106000851060008F3
:1001900051060008510600085106000851060008E3
:1001A00051060008510600085106000851060008D3
:1001B0006D2E00085106000851060008510600087F
:1001C00051060008510600085106000851060008B3
:1001D00051060008510600085106000851060008A3
:1001E0005106000851060008510600085106000893
:1001F0005106000851060008510600085106000883
:100200005106000851060008510600085106000872
:100210005106000851060008510600085106000862
:1002200051060008510600085106000800000000B1
:1002300051060008510600080000000051060008A1
:100240005106000851060008510600085106000832
:100250005106000851060008510600085106000822
:100260005106000851060008510600085106000812
:100270005106000851060008510600080000000061
:100280005106000851060008510600080000000051
:08029000000000005106000807
:1002980010B5054C237833B9044B13B10448AFF3B8
:1002A80000800123237010BD80000024000000009E
:1002B800D8A2000808B5034B1BB103490348AFF3A4
:1002C800008008BD0000000084000024D8A20008B7
:1002D80081F0004102E000BF83F0004330B54FEAEF
:1002E80041044FEA430594EA050F08BF90EA020F5C
:1002F8001FBF54EA000C55EA020C7FEA645C7FEAEF
:10030800655C00F0E2804FEA5454D4EB5555B8BF11
:100318006D420CDD2C4480EA020281EA030382EA82
:10032800000083EA010180EA020281EA0303362D14
:1003380088BF30BD11F0004F4FEA01314FF4801CE7
:100348004CEA113102D0404261EB410113F0004FF9
:100358004FEA03334CEA133302D0524263EB4303B0
:1003680094EA050F00F0A780A4F10104D5F1200E4E
:100378000DDB02FA0EFC22FA05F2801841F10001A9
:1003880003FA0EF2801843FA05F359410EE0A5F17D
:1003980020050EF1200E012A03FA0EFC28BF4CF0AE
:1003A800020C43FA05F3C01851EBE37101F0004564
:1003B80007D54FF0000EDCF1000C7EEB00006EEB71
:1003C8000101B1F5801F1BD3B1F5001F0CD34908FB
:1003D8005FEA30004FEA3C0C04F101044FEA445252
:1003E80012F5800F80F09A80BCF1004F08BF5FEAD9
:1003F800500C50F1000041EB045141EA050130BDB9
:100408005FEA4C0C404141EB0101013C28BFB1F5CA
:10041800801FE9D291F0000F04BF01460020B1FA15
:1004280081F308BF2033A3F10B03B3F120020CDAE8
:100438000C3208DD02F1140CC2F10C0201FA0CF0C6
:1004480021FA02F10CE002F11402D8BFC2F1200C2B
:1004580001FA02F120FA0CFCDCBF41EA0C019040E1
:10046800E41AA2BF01EB0451294330BD6FEA04042A
:100478001F3C1CDA0C340EDC04F11404C4F1200215
:1004880020FA04F001FA02F340EA030021FA04F327
:1004980045EA030130BDC4F10C04C4F1200220FA7E
:1004A80002F001FA04F340EA0300294630BD21FABC
:1004B80004F0294630BD94F0000F83F4801306BF82
:1004C80081F480110134013D4EE77FEA645C18BF76
:1004D8007FEA655C29D094EA050F08BF90EA020F0D
:1004E80005D054EA000C04BF1946104630BD91EA05
:1004F800030F1EBF0021002030BD5FEA545C05D108
:100508004000494128BF41F0004130BD14F5800446
:100518003CBF01F5801130BD01F0004545F0FE41BA
:1005280041F470014FF0000030BD7FEA645C1ABFEF
:10053800194610467FEA655C1CBF0B46024650EA26
:10054800013406BF52EA033591EA030F41F4002152
:1005580030BD00BF90F0000F04BF0021704730B5D8
:100568004FF4806404F132044FF000054FF00001AD
:1005780050E700BF90F0000F04BF0021704730B56E
:100588004FF4806404F1320410F0004548BF404243
:100598004FF000013EE700BF42004FEAE2014FEA98
:1005A80031014FEA02701FBF12F07F4393F07F4F73
:1005B80081F06051704732F07F4208BF704793F076
:1005C8007F4F04BF41F40021704730B54FF4607489
:1005D80001F0004521F000411CE700BF50EA01028C
:1005E80008BF704730B54FF000050AE050EA010235
:1005F80008BF704730B511F0004502D5404261EBA5
:1006080041014FF4806404F132045FEA915C3FF4E5
:10061800D8AE4FF003025FEADC0C18BF03325FEA82
:10062800DC0C18BF033202EBDC02C2F1200300FA33
:1006380003FC20FA02F001FA03FE40EA0E0021FA58
:1006480002F11444BDE600BFFEE700BF0B480C4AA8
:10065800904203D0121A0B4909F0E8FA0A480B4AEB
:10066800904203D0121A002109F0EEFA03F080F844
:1006780009F0B8FA00F052F8FEE700BF00000024C5
:100688007C000024ECA2000880000024C40E002492
:10069800704700BF704700BF704700BF2DE9F041A9
:1006A8001A480E46904601F01BFBF0EE407A9FED8B
:1006B800187AF2EE080A174CB0EE000A77EEC77AFD
:1006C800C7EEA00A09F02CF8DFED137A204620EED9
:1006D800270A84ED020A08F00BFE84ED060AB8F139
:1006E800000F10D000247568A7000A4808F01CFC09
:1006F800336805EB840501343B44A04585ED000AC9
:1007080083ED000AEFD1BDE8F08100BF9C00002412
:1007180000008A42F80000240000DC43244800213D
:1007280070B500F15C044FF07C562DED028B88B05B
:10073800DFED208A00F022F9A4F15C0000F072F8E5
:1007480001ADB0EE408ADFED1C0AB0EE680A0FCCAE
:100758000FC594E8070085E8070001A9002217489B
:1007680001F088FAB7EE007A154D9FED160AC7EE2C
:10077800087A284685ED038A85ED020A6E60C5ED84
:10078800058AC5ED047A08F0B3FD0023A4F16C00D6
:100798006E602B7040F2011385ED060AAB8400F001
:1007A80043F80949A4F16C0000F03AF8FEE700BFED
:1007B80020010024000000000000FE429C000024EC
:1007C800F80000240000C842A506000808B50C4837
:1007D80000230C4A43610C4908F096FD0B49094A6D
:1007E8000B4808F091FD074A08490A4808F08CFDB3
:1007F800044A09490948BDE8084008F085BD00BF1A
:1008080020010024000000249D060008A10600081D
:10081800F8000024D0000024990600089C00002459
:1008280000F046B900F048B9183001F09BBE00BF8F
:10083800F0B514218DB0044600F024F903461321C5
:10084800204604F1C4070125ADF80C3000F01AF970
:10085800034612212046ADF8103000F013F9039931
:1008680006AEADF8140038460095DDE9042301F022
:100878008DFA1121204600F005F91821ADF80C0079
:10088800204600F0FFF81721ADF81000204604F5C7
:100898008C7400F0F7F8ADF81400059B2046049A14
:1008A8000399009509AD01F071FA3046072102F06D
:1008B800A1FF96E8070085E807002946384601F0B9
:1008C8008DFA96E8070085E807002946204601F0DA
:1008D80085FA384601F098FA20460DB0BDE8F04098
:1008E80001F092BA2DE9F04115210446002504F1E2
:1008F800180704F194062DED028B8EB09FED1E8A29
:1009080000F0C0F8034605A8ADF80C30039901F0D3
:10091800A7FA0F21204600F0B5F803460DF125008F
:10092800ADF81030049901F09BFA0423022205A9BE
:10093800384601F0A3FA04F15C0204F17803C4E933
:1009480025232946384656F8048B01F021FE014636
:100958002046019100F0D0F80023F0EE480A0199F2
:1009680040461A4601F024F925B10EB0BDEC028BC1
:10097800BDE8F0810125E4E76F12033B70B504463A
:1009880088B0019100F052F80199204600F0F4F87F
:100998001B21204604F19C0600F074F8034620460B
:1009A80004F1AC05ADF8183000F0A6F80699304609
:1009B80001F038FA1C21204600F064F8034620466E
:1009C800ADF81C3000F098F80799284601F02AFA8B
:1009D8001A212046C4E92F6500F054F8034619216E
:1009E8002046ADF80C3000F04DF803460D212046A6
:1009F800ADF8103000F046F803462046ADF8143044
:100A080000F07AF803A904F13C000EC901F00CF9D2
:100A18002046FFF70DFF2046FFF764FF30212046F0
:100A280008B0BDE8704000F04BB800BF1149012381
:100A3800114A4FF4A06C80F82930A0F824C080F83F
:100A48002D30C0E9001202F18172062105320174CD
:100A580040F20271C260094AA0F82710026240F60B
:100A6800066210B4064CA0F82B2084605DF8044B95
:100A7800704700BF000705000105080500010004D4
:100A8800090507051F2982B009D8084B03EB410265
:100A980013F81130507843EA002002B07047012360
:100AA8000C2043EA002002B0704700BF709C000889
:100AB800143001F053B800BF143001F04BB800BF38
:100AC80038B500F1140504462DED028B284601F0D7
:100AD80033F8284601F03EF82846B0EE408A01F087
:100AE80027F8D0ED007AF8EE677A88EE277ABDEC21
:100AF800028B84ED0E7A38BD90ED0E0A704700BF68
:100B080030B5032491B00125194900234FF44172EF
:100B1800089106A9ADF8242002939FED137BCDE937
:100B28000A45144D044602A88DED0C7B8DED0E7B15
:100B3800CDE9063502F068FB40F601333025ADF803
:100B48000430019800F056F803214FF07E53029AC2
:100B580004F114000593CDE9035103A900F0B6FF91
:100B680011B030BDAFF300800000000001000000AC
:100B7800040504060402040430B504462DED028B76
:100B880083B089B3012240F201130092ADF804301A
:100B9800694604F1300002F04FFD204600F04CF8A1
:100BA800E01C01F0E9FE04F1270001F0F5FD04F175
:100BB800140504F12B0001F0EFFD2046FFF7A0FF1C
:100BC800284600F0C7FF2846B0EE408A00F0B0FF84
:100BD800D0ED007AF8EE677A88EE277A84ED0E7AFF
:100BE80003B0BDEC028B30BD40F201130091ADF8AB
:100BF8000430CDE710B584B003460124ADF80400F5
:100C080003A8ADF80C30ADF80E4001F0C5FD214643
:100C180003A801F09DFE204602F046FC002103A82F
:100C280001F096FE204602F03FFC214603A801F0A1
:100C38008FFE04B010BD00BFF0B53F4C8BB0A06371
:100C480003781BB1002528460BB0F0BD002207939E
:100C580001233A49201D61600321C4E902230822C7
:100C6800202306910A21C4E9042340224FF4C073CB
:100C7800089102A9C4E9062300224FF40063C4E9DD
:100C880008234FF480520023C4E90A2302220723D1
:100C9800CDE9022304220823CDE9042307F0C8FC88
:100CA8000546002844D1102301220126002702A965
:100CB8000190201DCDE902234FF48052CDE904674D
:100CC80007F0E0FC642002F01FFE02A94FF48052F6
:100CD800201DCDE9046702261027CDE9026707F039
:100CE800D1FC0322102302A9201DCDE902230023F1
:100CF8000422CDE904234FF4805207F0C3FC40F2EC
:100D08003223042202A901931023201DCDE90223D6
:100D1800019A012305924FF48052049307F0B2FC24
:100D280040F60601201D07F0CDFC28460BB0F0BDAB
:100D3800012528460BB0F0BD900200244041005226
:100D48006A4A00232DE9F04315688FB00A9315B15C
:100D58000FB0BDE8F083664B01210C244FF0030867
:100D680011600026D3F8D4200327624842F4805249
:100D7800DFF89891C3F8D420D3F8D42002F4805235
:100D88000092009AD3F8E02042F01002C3F8E02065
:100D9800D3F8E02002F010020192019AD3F8E02083
:100DA80042F04002C3F8E020D3F8E02002F040020D
:100DB8000292029AD3F8E02042F00802C3F8E02039
:100DC800D3F8E02002F008020392039AD3F8E02057
:100DD80042F48072C3F8E020D3F8E02002F4807275
:100DE8000492049AD3F8E02042F08002C3F8E0208D
:100DF800D3F8E02002F080020592059AD3F8E020AB
:100E080042F02002C3F8E020D3F8E02002F02002EC
:100E18000692069AD3F8E02042F00402C3F8E020D4
:100E28004FF68372D3F8E0300C9403F00403CDF846
:100E38002C8007930223079908A9CDE9082304F019
:100E48004FFB48F23712022308A92B480C94CDE92E
:100E58000823CDE90A6704F043FB4CF2037202232E
:100E680008A926480C94CDE90823CDE90A6704F0BF
:100E780037FB40F2FF62022308A921480C94CDE910
:100E88000823CDE90A6704F02BFB4FF60C72022306
:100E980008A91C480C94CDE90823CDE90A6704F099
:100EA8001FFB4FF63F02022308A917480C94CDE90F
:100EB8000823CDE90A6704F013FBD9F8380001309C
:100EC80002F0A8FCD9F838300646581C02F0AAFCF3
:100ED8000223089008A930460A950993CDE90B84A6
:100EE80004F0FEFA0FB0BDE8F08300BF8C020024C6
:100EF800004402580010025800180258000C02580A
:100F080000200258001C02580014025890020024C5
:100F18002DE9F04FDFF8108406460D46144608F117
:100F280014002DED028B89B000AF02F065FAD8F8F5
:100F3800143073B3D8F81830D8F80490002B4369EC
:100F48000BBF4FF0080A4FF0100A4FF0020B4FF09A
:100F5800040BB9F1000F2AD0A200EA46012B02F1D6
:100F6800070222F00702ADEB020D6846ADEB020D59
:100F7800694600F03F81022B00F0D680002B6FD02D
:100F88002246C847D5462437BD46BDEC028BBDE88E
:100F9800F08FD8F81830002BF5D0D8F804904FF01F
:100FA800080A4FF0020B4369B9F1000FD4D1FB6175
:100FB800D8F80030BB61002BE5D0D54802F064FAC0
:100FC8006B46BBF1020F786108EE103AFB6900F03E
:100FD80083816A465146A2EBC40295466200EA46FE
:100FE800B2FBFBF2AAEBC40085460AEB8200EE4690
:100FF800F861ADEB010DF8690EEB820CC7F810C073
:10100800EC46ADEB010D00EB8201CCF80400CCF806
:10101800081001EB82013869E946CCF80C1000EBA6
:101028008201CCF800A001EB8202C9E900E0C9E91D
:101038000212012B00F06483022B00F06C82002B5B
:1010480000F08081620849466046BB69984718EEFF
:10105800103A24379D46BD46BDEC028BBDE8F08FA3
:10106800002C8DD01A46D8ED0B6A9FEDB27A8446D3
:10107800331D36F922E00CF1080C07EE90EA33F93B
:1010880022E00232F8EEE77A944267EE877A67EE5A
:10109800A67A4CED027A07EE90EAF8EEE77A67EE68
:1010A800877A67EEA67A4CED017AE2D8F961224692
:1010B800C847984ED8ED046A0020F9692B1D9FEDAA
:1010C8009E7A9FED9E6ADFED9E5A22E0F4EEC67A84
:1010D800F1EE10FAC0F2C88447F6FE72D1ED017A3B
:1010E80045F8202066EEA77AF4EEC77AF1EE10FAFA
:1010F80040F2F080F4EEC67AF1EE10FAC0F2D58430
:1011080047F6FE7243F820200230083184427FF609
:1011180039AFD1ED007A66EEA77AF4EEC77AF1EE30
:1011280010FAD3D83246D9E7002C3FF429AFD8EDCE
:101138000B6A84469FED787A0022331D8E4656F856
:1011480022100CF1080C07EE901A53F82210023204
:10115800F8EEE77A944267EE877A67EEA67A4CED66
:10116800027A07EE901AF8EEE77A67EE877A67EE6A
:10117800A67A4CED017AE2D871462246C7F81CE0FF
:10118800C847664ED8ED046A0020F9692B1D9FED0B
:101198006A7A9FED6A6ADFF894C120E0F4EEC67AB5
:1011A800F1EE10FAC0F279843246D1ED017A45F8B1
:1011B800202066EEA77AF4EEC77AF1EE10FA40F234
:1011C8008780F4EEC67AF1EE10FAC0F25E843246F9
:1011D80043F820200230083184427FF6D3AED1EDA7
:1011E800007A66EEA77AF4EEC77AF1EE10FAD5D84F
:1011F8006246DAE7002C3FF4C3AED8ED0B6A8646A8
:101208009FED477A4FF0000C331D56F82C200EF155
:10121800080E82F40002A2F5000207EE902A53F8A5
:101228002C200CF1020CF8EEE77A82F400026445F7
:10123800A2F5000267EE877A67EEA67A4EED027A8B
:1012480007EE902AF8EEE77A67EE877A67EEA67AD5
:101258004EED017AD9D8F9612246C847314ED8ED0A
:10126800046A0020F9692B1D9FED337A9FED336ADC
:10127800DFF8BCC01FE0F4EEC67AF1EE10FAC0F257
:10128800FC833246D1ED017A45F8202066EEA77A34
:10129800F4EEC77AF1EE10FA18D9F4EEC67AF1EE48
:1012A80010FAC0F2DA83324643F8202002300831BF
:1012B80084427FF667AED1ED007A66EEA77AF4EE47
:1012C800C77AF1EE10FAD6D86246DBE76246EBE75A
:1012D80062467DE7324615E7A100D6466208073127
:1012E80021F00701ADEB010DEA46ADEB010D6946B2
:1012F800ADEB0E0D0AEB8200EC46ADEB0E0D01EBEB
:101308008202F861E946CCE900A0C9E9001290E63A
:10131800E40200240280FFFF000000300082FF7F0B
:101328000000003482FF7F00CC020024007E008091
:101338007E0080FF0000003804FF7FBF04FF7F3F6E
:1013480000FEFF46002C00F0C982BBF1020FD8F85E
:10135800202000F0FA827969C7F8049002EB810E28
:101368005FED0C5A8A00DCF808100EF104007A616F
:101378001A46DCF80C303B61331DD7F810903D61FC
:10138800FD69C7E902CB8C46834636F92210D8EDB1
:101398000B7A06EE101A33F9221006EE901A3EF96F
:1013A8002210B8EEC66A07EE101AF8EEE66A3BF9A4
:1013B8002210B8EEC77A26EE256A66EEA56A27EEF1
:1013C800257A26EE276A66EEA76A27EE277A07EEC1
:1013D800901A51080232F8EEE77A0AEB810094423B
:1013E80080ED006A05EB810067EEA57AC0ED006A22
:1013F8000CEB810009EB810180ED007A98ED0B7A06
:1014080067EE877AC1ED007ABFD8D7F804903D69B6
:10141800D7E902CB60466208BB6949469847D8F8C5
:1014280028307A69D8ED046A1A441FED3D7A1FED19
:101438003D6A2B1D904602F1040A5FED3F5A0022D7
:10144800A84ED9E900EC51E0F4EEC67AF1EE10FAB4
:10145800C0F2C78247F6FE7045F822000CEB010087
:10146800D0ED007A66EEA77AF4EEC77AF1EE10FABC
:101478004BD9F4EEC67AF1EE10FAC0F2BA8247F60A
:10148800FE70BBF1020F43F822002BD0D9F80800F8
:101498000844D0ED007A66EEA77AF4EEC77AF1EE4A
:1014A80010FA36D9F4EEC67AF1EE10FAC0F2CD820F
:1014B80047F6FE7048F82200D9F80C000144D1ED37
:1014C800007A66EEA77AF4EEC77AF1EE10FA1ED922
:1014D800F4EEC67AF1EE10FAC0F2AF8247F6FE716A
:1014E8004AF82210023294427FF6B1AD51080EEB51
:1014F80081008900D0ED007A66EEA77AF4EEC77A0B
:10150800F1EE10FAA0D83046A6E73046B9E73146E2
:10151800E6E73046CEE7002C00F0E081BBF1020F91
:10152800D8F8203000F0E1817A69DCF8081003EB84
:10153800820EC7F804909300DFED6B5A0EF1040099
:1015480000227B61DCF80C303B61331DD7F810902A
:101558003D61FD69C7E902CB8C46834656F82210E7
:10156800D8ED0B7A07EE101A53F82210B8EEC76AB6
:1015780007EE101A5EF82210F8EEC76A07EE101A86
:1015880026EE256A5BF82210B8EEC77A66EEA56AE1
:1015980026EE276A27EE257A66EEA76A27EE277ACF
:1015A80007EE901A51080232F8EEE77A0AEB81004A
:1015B800944280ED006A05EB810067EEA57AC0EDE4
:1015C800006A0CEB810009EB810180ED007A98ED4F
:1015D8000B7A67EE877AC1ED007ABFD8D7F8049006
:1015E8003D69D7E902CB60466208BB69494698471E
:1015F800D8F828307A69D8ED046A1A449FED3E7A03
:101608009FED3E6A131D9246DFF8E4C00022FB619D
:101618002B1D364ED9E9008E4EE0F4EEC67AF1EE77
:1016280010FAC0F2FC81304645F822000EEB0100AA
:10163800D0ED007A66EEA77AF4EEC77AF1EE10FAEA
:1016480049D9F4EEC67AF1EE10FAC0F2EF813046CD
:10165800BBF1020F43F822002AD0D9F80800084449
:10166800D0ED007A66EEA77AF4EEC77AF1EE10FABA
:1016780035D9F4EEC67AF1EE10FAC0F2C9813046D7
:101688004AF82200D9F80C000144D1ED007A66EE40
:10169800A77AF4EEC77AF1EE10FA1ED9F4EEC67AFC
:1016A800F1EE10FAC0F2AD813146F86940F8221027
:1016B800023294427FF6CBAC510808EB81008900D6
:1016C800D0ED007A66EEA77AF4EEC77AF1EE10FA5A
:1016D800A3D86046A8E76046BAE76146E5E76046F2
:1016E800CEE700BF0280FFFF000000300082FF7FCE
:1016F800007E00800000003404FF7FBF04FF7F3FAE
:10170800002C00F0EB807A690021D8F82030C7F867
:10171800109003EB820ED7F81C909300FD610EF138
:1017280004021FED0C6A7B61331D154656F8212013
:101738004808D8ED0B6ABBF1020F82F40002A2F54B
:10174800000207EE902A53F8212082F40002B8EE36
:10175800E77AA2F5000227EE067A07EE902A0AEB4E
:101768008002F8EEE77A27EE267A67EE867A82ED2F
:10177800007A09EB80024FEA800067EEA67AC2ED94
:10178800007A27D05EF8212082F40002A2F5000238
:1017980007EE902A55F8212082F40002B8EEE77A85
:1017A800A2F5000227EE067A07EE902ADCF8082058
:1017B800F8EEE77A024427EE267A67EE867A82ED1B
:1017C800007A98ED0B7ADCF80C2067EE877A0244F1
:1017D800C2ED007A02318C42A8D8D7F81090604642
:1017E8006208BB694946FD699847D8F828307A6984
:1017F800D8ED046A1A441FED407A1FED406A131DA4
:101808009246DFF8C4C20022FB612B1DAB4ED9E91A
:10181800008E4EE0F4EEC67AF1EE10FAC0F2C58002
:10182800304645F822000EEB0100D0ED007A66EE56
:10183800A77AF4EEC77AF1EE10FA49D9F4EEC67A2F
:10184800F1EE10FAC0F2BF803046BBF1020F43F848
:1018580022002AD0D9F808000844D0ED007A66EEB4
:10186800A77AF4EEC77AF1EE10FA35D9F4EEC67A13
:10187800F1EE10FAC0F2AE8030464AF82200D9F8EC
:101888000C000144D1ED007A66EEA77AF4EEC77A2F
:10189800F1EE10FA1ED9F4EEC67AF1EE10FAC0F2A3
:1018A8008B803146F86940F82210023294427FF664
:1018B800CEAB510808EB81008900D0ED007A66EEC6
:1018C800A77AF4EEC77AF1EE10FAA3D86046A8E733
:1018D8006046BAE76146E5E76046CEE722464946F4
:1018E8006046BB699847FFF7B2BBC7F810B0002243
:1018F80098ED0B6A331DDFED726AD7F81CB0786972
:1019080056F8221007EE901A53F82210B8EEE77A2C
:1019180007EE901A51080232F8EEE77A27EE267A97
:101928000AEB810E94420BEB810167EEA67A27EE53
:10193800067A67EE867A8EED007AC1ED007ADFD8F6
:101948008300D7F810B07B614DE61A46C7F810B08F
:1019580098ED0B6A331DDFED5B6AD7F81CB0786928
:1019680036F9221007EE101A33F9221007EE901AF2
:10197800B8EEC77A51080232F8EEE77A27EE267AEF
:101988000AEB810E94420BEB810167EEA67A27EEF3
:10199800067A67EE867A8EED007AC1ED007ADFD896
:1019A8008300D7F810B07B6134E5F0EE675AFEEE9D
:1019B800E45A15EE900A34E7F0EE675AFEEEE45A60
:1019C80015EE901A6EE7F0EE675AFEEEE45A15EE41
:1019D800900A3AE7F0EE675AFEEEE45A15EE900ADE
:1019E8004BE767EEA57AFDEEE77A17EE900A00B2AC
:1019F80032E567EEA57AFDEEE77A17EE900A00B2B7
:101A08003FE5F0EE675AFEEEE05A15EE901A4CE606
:101A1800F0EE675AFEEEE05A15EE900A30E6F0EE68
:101A2800675AFEEEE05A15EE900AFDE5F0EE675AA9
:101A3800FEEEE05A15EE900A0AE667EEA57AFDEE8C
:101A4800E77A17EE901A09B24AE567EEA57AFDEE35
:101A5800E77A17EE900A00B22CE5F0EE675AFEEE30
:101A6800E45A15EE902A1FE467EEA57AFDEEE77AB0
:101A780017EE902A12B2FFF731BBF0EE675AFEEE6E
:101A8800E45A15EE902AFFF7FDBBF0EE675AFEEE1A
:101A9800E05A15EE902AFFF79BBBF0EE675AFEEE70
:101AA800E05A15EE902AFFF780BB67EEA57AFDEEA7
:101AB800E77A17EE902A12B2FFF724BB82FF7F0065
:101AC80000000030000000387E0080FF30B5154C63
:101AD800154685B0046004F1080C01AB07C98CE811
:101AE8000700D4ED047AF5EEC07A83E80700F1EE3A
:101AF80010FA14DDF7EE006A86EEA77A84ED0B7A09
:101B08006DB1204640F8145F01F076FC0649036980
:101B18000020064AE1616262E36005B030BD012041
:101B280005B030BDCC020024002000300000003099
:101B380000680830704700BFB1F5806F03680A4637
:101B480028BF4FF48062B1F5806F9A6094BF00207F
:101B5800012070470068143001F084BC30B5046877
:101B680083B00D46A3694BB1A3680020A26A216A1D
:101B78009B00009004F1180001F040FCA36807489E
:101B8800626A9B00E169009004F1140001F036FCE0
:101B98000020C4E9005003B030BD00BF190F000891
:101BA800024B0022C3E90522704700BFCC02002483
:101BB800B6EE007A437660EE200A0023F7EE007A4C
:101BC800016080ED020A60EE870A0276C0ED047AB1
:101BD800C36087EEA07A436180ED017A704700BF49
:101BE8000268037E128807EE902AFBEEC87A1BB1C2
:101BF800B7EE007A77EE677AD0ED056A90ED047A51
:101C080077EEE67A437E67EE877A0BB1F1EE677A74
:101C180090ED030A90ED017A77EEC07AA7EE270AD5
:101C280080ED030A704700BF10B584B00446103039
:101C3800ADF804304FF48073ADF80820ADF80C10FF
:101C4800828001806382E3828DED000A00F0A4FDAA
:101C580004F1140000F0A0FD9DED000A0199204652
:101C680000F0E0F800224FF6FF73E261238304B02E
:101C780010BD00BFDFED197A4B68B4EE670AD1F8E2
:101C88000CC010B504460868F1EE10FA2DED028B71
:101C98006360B0EE608A8B68206084F83020086941
:101CA8000A8BA3604B6984ED070A48BFB0EE670A48
:101CB800C4ED080AC4F80CC020616361228307F0F0
:101CC800CBFCF0EE407AB0EE480AC4ED097A07F092
:101CD800C3FC84ED0A0ABDEC028B10BD95BFD63358
:101CE80090F8303010B50446032B4BD8DFE803F0EA
:101CF8003B2A1502FFF774FF60EE006AD4ED077AFD
:101D080094ED087A26EE800A37EE677AE0EE077AD5
:101D1800C4ED0B7AB0EE670A10BDFFF761FF94EDD2
:101D2800097AD4ED0A7A77EEC77AA0EE277AB0EE70
:101D3800470A07F01FFCF0EE407A84ED0B0AB0EE7C
:101D4800670A10BDFFF74CFFD4ED077A94ED087AC7
:101D580020EE000A37EE677AE0EE077AB0EE670AFF
:101D6800C4ED0B7A10BDFFF73BFFD4ED077A94ED75
:101D7800087A37EE677AE0EE077AB0EE670AC4EDC4
:101D88000B7A10BDD0ED0B7AC4E700BF30B585B033
:101D980004469FED110A9DF82050ADF80C100399E8
:101DA800ADF808202A46ADF804308DED000A06F09B
:101DB8004DFD9DED000A2A46029904F11C0006F02B
:101DC80045FD9DED000A2A46019904F1380005B049
:101DD800BDE8304006F03ABD00007A4438B50C46FC
:101DE800054691ED000A06F055FD94ED010A05F14E
:101DF8001C0006F04FFD94ED020A05F13800BDE81D
:101E0800384006F047BD00BF10B5044606F054FD43
:101E180004F11C0006F050FD04F13800BDE8104044
:101E280006F04ABDB7EE007A0346012282B0C1F33C
:101E380007204FF0000CC7EE007AADF80410C3F885
:101E48000CC04FF0000C987098181A70597083F8ED
:101E580003C09A809A71C3ED027A02B000F09CBC6C
:101E680082B04FF0000C0323ADF80410BDF8042035
:101E780080F810C00280438002B070472DE9F04F0F
:101E880003700D460023D44CD4498DB042600646F9
:101E98008B611746C4F82811A4F80931C4F8FD303D
:101EA800C4F80131C4F80531C4F80C31C1E9003374
:101EB800C1E90233C1E904333831CDE90133CDE951
:101EC8000333CDE90533CDE90733CDE90933C4E957
:101ED8004433C4E94633C4F82C11C4E9483384F8C0
:101EE800FC2084F80C324368002B00F0E781EB6893
:101EF800A44628686968AA68ACE80F002B7C8CF8AF
:101F080000302B7C84F8FD302B7C002B40F0FB81CB
:101F18007368012B40F29A81D5F81130D5F81D204D
:101F2800D5F81500D5F81910C4F81130AC4B586025
:101F38009960DA6095F821201A7495F8213084F8B0
:101F4800FE3095F82130002B40F0E1817368022BB8
:101F580040F27C81D5F82230D5F82E20D5F826001D
:101F6800D5F82A10C4F822309E4B58609960DA6080
:101F780095F832201A7495F8323084F8FF3095F8C5
:101F88003230002B40F0C7817368032B40F25E812A
:101F9800D5F83330D5F83F20D5F83700D5F83B10C1
:101FA800C4F83330904B58609960DA6095F8432054
:101FB8001A7495F8433084F8003195F84330002BB3
:101FC80040F0AD817368042B40F240812B6D686C42
:101FD800A96CEA6CDFF82CC2ACE80F0095F8543015
:101FE8008CF8003095F8543084F8013195F8543065
:101FF80013B1012384F80C327368052B40F2268153
:10200800D5F85530D5F86120D5F85900D5F85D10C8
:10201800C4F85530754B58609960DA6095F86520BA
:102028001A7495F8653084F8023195F8653013B163
:10203800012384F80C327368062B40F20781D5F827
:102048006630D5F87220D5F86A00D5F86E10C4F855
:102058006630674B58609960DA6095F876201A7494
:1020680095F8763084F8033195F8763013B101236A
:1020780084F80C327368072B40F2E880D5F8773083
:10208800D5F88320D5F87B00D5F87F10C4F87730D1
:10209800584B58609960DA6095F887201A7495F85B
:1020A800873084F8043195F88730002B40F0AC81F4
:1020B8007368082B40F2CA80D5F89430D5F88800A8
:1020C800D5F88C10D5F89020DFF83CC1ACE80F00AB
:1020D80095F898308CF8003095F8983084F80531E8
:1020E80095F89830002B40F093817368092B40F2E3
:1020F800AD80D5F89930D5F8A520D5F89D00D5F84C
:10210800A110C4F899303C4B58609960DA6095F892
:10211800A9201A7495F8A93084F8063195F8A930E1
:10212800002B40F07B8173680A2B40F28F80D5F832
:10213800AA30D5F8B620D5F8AE00D5F8B210C4F854
:10214800AA302E4B58609960DA6095F8BA201A7454
:1021580095F8BA3084F8073195F8BA30002B40F07A
:10216800618173680B2B71D9D5F8BB30D5F8C720BE
:10217800D5F8BF00D5F8C310C4F8BB30204B586061
:102188009960DA6095F8CB201A7495F8CB3084F80A
:10219800083195F8CB30002B40F0488173680C2B40
:1021A80054D9D5F8D830D5F8CC00D5F8D010D5F812
:1021B800D420DFF858C0ACE80F0095F8DC308CF874
:1021C800003095F8DC3084F8093195F8DC30FBB143
:1021D800012384F80C321BE0000300240040003087
:1021E8001103002422030024330300245503002490
:1021F800660300247703002499030024AA0300241B
:10220800BB0300244403002488030024CC030024D7
:1022180073680D2B1AD9D5F8DD30D5F8E920D5F833
:10222800E100D5F8E510C4F8DD30BB4B5860996083
:10223800DA6095F8ED201A7495F8ED3084F80A31D3
:1022480095F8ED3013B1012384F80C324FF4802255
:10225800B24808210023FFB2C4F83831C4F84871E5
:1022680084F84431C4E94C020122C4E94F2194F8AE
:102278000C12C4E9553399B384F8453184F84C21DC
:10228800C4F85C21337800200021C4E958018BB3DD
:102298000122013B84F86821C4F878210022C4F89F
:1022A8007421082B28D8DFE813F0C500CA00CF0036
:1022B800D400D900DE00E300E900F000D7B2C4F88A
:1022C8003831964A012184F84431C4F84871C4E988
:1022D80055334FF48023C4E94C230823C4E94F1332
:1022E800012384F84531002384F84C310323C4F8D2
:1022F8005C31C7E784F86831894801F03DFF03463F
:1023080088B1FFBEFEE7012384F80C3200E6012302
:1023180084F80C321AE6012384F80C3234E60123DF
:1023280084F80C324EE601A97D48019302F082F848
:102338000546002870D1022240F2FF73CDE906233A
:1023480000230422CDE9082394F8FC30002B00F088
:10235800D3804FF0060921E0022B00F09D80012B6D
:1023680040F0C2809AF80130012B00F0BF80002BAA
:102378006C4B18BF002304A96948CDE9043901F062
:1023880027FB002840F0BD80013594F8FC30EDB201
:10239800AB4240F2B180644B53F825902FB207EB63
:1023A800071704EB070A504600F0F6F905EB05138A
:1023B80023441B7C042B7BDC022B00F38F8000F072
:1023C8008B806319002283F8EE20E35D002BC3D1D4
:1023D8009AF80130062B00F08380072B00F08880E4
:1023E800022B00F09080032B00F08F80002B00F070
:1023F8008E80012B00F08D80042B00F0AF80052B20
:102408004A4B18BF0023B6E7012384F80C324FE685
:10241800012384F80C3268E6FFBEFEE7012384F846
:102428000C3280E6012384F80C329AE6012384F802
:102438000C32B3E603234022C4E95B325CE707238E
:102448006022C4E95B3257E70F238022C4E95B327C
:1024580052E71F23A022C4E95B324DE73F23C02285
:10246800C4E95B3248E77F23E022C4E95B3243E7F3
:10247800FF234FF48072C4E95B323DE740F2FF135B
:102488004FF49072C4E95B3236E740F2FF334FF401
:10249800A072C4E95B322FE79AF80130042B21D0EF
:1024A800052B27D05BB3012B214B18BF002362E714
:1024B80003233E1D04EB05084FF0000B264488F863
:1024C800EE3030460BF1010B00F066F998F8EE306B
:1024D80004365B45F5DC78E70123EAE70223E8E701
:1024E800144B48E7144B46E7002344E7134B42E7F5
:1024F800134B40E7134B3EE70DB0BDE8F08F124B8E
:1025080039E7FFBEFEE7114B35E7114B33E7114BB7
:1025180031E7114B2FE700BFDD0300240020024004
:10252800300400240002B025B09C00080000B84F19
:102538000008302E0800900C1000C0102000F01485
:102548008000501D000180210004002A0040C03A8C
:102558000080F03E0000214300005247004B0AE78C
:102568000000844B38B5094C40F2FF724FF001115E
:1025780004F59875284601F00BFF94F8FC20D4F870
:1025880028112846BDE8384001F076BC0003002435
:10259800034B0D29D3F8280198BF00EB4100704781
:1025A80000030024214B02689A4200D07047204B58
:1025B80000212048D3F8D82030B542F020021E4C24
:1025C80083B0C4F8940104F5CA75C4E96D11C3F861
:1025D800D8200922D3F8D830284603F020030193E5
:1025E800019B94F80C328B4214BF0B464FF4807356
:1025F800C4F8B0310023C4E9662300224FF4806395
:10260800C4E968234FF400624FF40053C4E96A2315
:1026180002F036F908B1FFBEFEE704F59873C4F876
:102628007C51C4F8CC3103B030BD00BF002002405B
:10263800004402584000024000030024014802F010
:10264800FDBB00BF9404002402682DE9F84F4C4BF1
:102658009A4201D0BDE8F88F4A4E96F80C32002B0A
:10266800F8D096F8FC20002A76D0002406F10C0950
:1026780006F5867506F1FC07A04613E003F0010194
:1026880017F80FBCA9F1080000F062F9BBF1010FBF
:1026980025D896F8FC20013409F111090235A3B2B6
:1026A8009A422BD917F8013F002BF4D0D6F82831DD
:1026B80000212A7833F81400D6F82C3103EB0413E0
:1026C80023F812002B8801339BB22B805FFA83FA20
:1026D8003A789A42D2D88A46A5F80080D0E7CAF359
:1026E8004001A9F1040000F033F9BBF1020FCAF36D
:1026F8008001CED0484600F02BF9CAE796F80C02C4
:1027080009220023204900284FF00000C6F8941140
:102718004FF48061C6E966234FF400624FF400531A
:10272800C6E96A2314BF00224FF48072C6E9680123
:1027380000231648C6E96C23C6F8B83102F0A0F8A1
:1027480008B1FFBEFEE796F8FC20D6F8281110481D
:10275800BDE8F84F01F090BB092000210A4BC6E9FB
:10276800660100204FF48061C6F89431C6E968011B
:102778004FF400604FF40051C6E96A01D8E700BF82
:10278800002002400003002440000240940400247A
:1027980030040024704700BF30B583788FB00446FA
:1027A800022B37D0032B33D0012B31D000230A93CF
:1027B800E378012B2AD0022B28D000230B93002387
:1027C80020460C9301F026F80546204601F02AF829
:1027D80023780990082B13D8DFE803F01F324558F7
:1027E8006B7E91A40500594BD3F8E02042F4807227
:1027F800C3F8E020D3F8E03003F480730893089B13
:1028080009A9284602F06CFE0FB030BD0B93D6E73D
:102818000A93CDE711230A93CAE74C4B09A9284626
:10282800D3F8E02042F00102C3F8E020D3F8E0300A
:1028380003F001030093009B02F052FE0FB030BD7D
:10284800424B09A92846D3F8E02042F00202C3F817
:10285800E020D3F8E03003F002030193019B02F07B
:102868003FFE0FB030BD394B09A92846D3F8E02008
:1028780042F00402C3F8E020D3F8E03003F0040388
:102888000293029B02F02CFE0FB030BD2F4B09A91A
:102898002846D3F8E02042F00802C3F8E020D3F835
:1028A800E03003F008030393039B02F019FE0FB016
:1028B80030BD264B09A92846D3F8E02042F0100283
:1028C800C3F8E020D3F8E03003F010030493049B2E
:1028D80002F006FE0FB030BD1C4B09A92846D3F8FC
:1028E800E02042F02002C3F8E020D3F8E03003F003
:1028F80020030593059B02F0F3FD0FB030BD134B89
:1029080009A92846D3F8E02042F04002C3F8E020A5
:10291800D3F8E03003F040030693069B02F0E0FD95
:102928000FB030BD094B09A92846D3F8E02042F082
:102938008002C3F8E020D3F8E03003F08003079367
:10294800079B02F0CDFD0FB030BD00BF0044025818
:1029580070B506460D4600F05DFF0446304600F0AF
:1029680061FF2A1E0146204618BF0122BDE87040BB
:1029780002F0BEBF000000002DE9F04FC84C03462E
:102988002DED048B2046ABB023655D781E7803F0EF
:1029980007F9E0B9012D4FF00107C24A14BF4FF4FF
:1029A80080134FF40003E0602260C4E9017793FAD2
:1029B800A3F3B3FA83F34FF48078013BC4F814808F
:1029C800C4E907002046236103F07EF828B10120FE
:1029D8002BB0BDEC048BBDE8F08F662313901B90E1
:1029E80041F288320EA90E93CDE91480CDE9160084
:1029F800CDE91900204603F0F1F80028E7D1992322
:102A080041F288320EA920460E9303F0E7F8002819
:102A1800DDD14FF0050A4FF08079249041F28833D8
:102A2800219008AA29901CA9CDF870A0CDF89490FF
:102A38009FED917B9FED929B9FED938BCDE922803B
:102A4800CDE9270020468DED087B8DED0A9B8DEDA5
:102A58000C8B03F02FFA0028B9D11897ADF80800AD
:102A680013901B90CDE91480CDE91609CDE9190022
:102A7800002D00F0BA80F023ADF80830C02341F2F1
:102A880088320EA986480E9303F0A8F800289ED134
:102A980041F28832824802A903F00AF9002896D147
:102AA8004FF480744FF005084FF080754FF0000A1E
:102AB8004FF0010B2190299041F2883308AA1CA9F4
:102AC8002294CDF8708025959FED6D9B9FED6E8BC0
:102AD800CDE92300CDE927007148CDE908AB8DED9C
:102AE8000A9B8DED0C8B03F0E5F900287FF46FAF9E
:102AF800012706238DF8070041F2883213901CA99C
:102B08001B90219029900E971C93CDE91440CDE994
:102B18001605CDE91900CDE92240CDE92400CDE91B
:102B280027005F4803F05AF800287FF450AF41F2BD
:102B3800883308AA1CA95A48CDF8708025959FEDBE
:102B4800547B8DED0A9B8DED0C8B8DED087B03F08E
:102B5800B1F900287FF43BAF41F288320EA9504802
:102B680003F03CF800287FF432AF402341F288326A
:102B78000DF107014A488DF8073003F099F800284D
:102B88007FF425AF02AA41F288330EA94448CDF854
:102B9800388017959FED407B8DED049B8DED068B5E
:102BA8008DED027B03F086F900287FF410AF2190A9
:102BB80008AA299041F288331CA92294CDF8708084
:102BC8002595CDE92300CDE927003548CDE908ABA7
:102BD8008DED0A9B8DED0C8B03F06CF900287FF4CA
:102BE800F6AE002E60D00020F2E6612341F2883272
:102BF8000EA920460E9302F0F1FF00287FF4E7AEFD
:102C080041F2883202A9204603F0D0F800287FF468
:102C1800DEAEBDF8083041F2883221901CA923F0BD
:102C28007803299043F04003ADF808300623CDE936
:102C38002280CDE92400CDE9270020461C9302F02C
:102C4800CDFF00287FF4C3AE20460225022441F2BE
:102C5800883308AA1CA9CDF870A0CDF894908DED02
:102C68000A9B8DED0C8BCDE9084503F023F900286C
:102C78003FF404AFABE600BF000000000100000015
:102C880010000000010000000000000000004000EB
:102C980002000000020000004000000040000000A8
:102CA8001005002400500052EB204FF480740023DC
:102CB80000251C904FF4005022944FF440641F905C
:102CC800A02020930EAA23944FF4404427931CA9D4
:102CD80028934FF080531E900620249400242993B3
:102CE8004FF04073219005482593CDE90E4503F038
:102CF80059F9003818BF01206AE600BF1005002402
:102D08003E4B02682DE9F0479A428CB04FF000051F
:102D1800CDE90755CDE909550B9502D00CB0BDE8B2
:102D2800F087374B0226374905AFD3F8D420B14690
:102D3800DFF8D4A04FF0030842F48042C3F8D4204F
:102D4800D3F8D42002F480420092009AD3F8E0200D
:102D580042F04002C3F8E020D3F8E02002F040023D
:102D68000192019AD3F8E02042F02002C3F8E02053
:102D7800D3F8E02002F020020292029AD3F8E02071
:102D880042F01002C3F8E020D3F8E02002F010026D
:102D98000392039AD3F8E02042F00202C3F8E0203D
:102DA800D3F8E03003F002030493049B03C90590B1
:102DB800ADF81810DAF8504034440236204600F0D6
:102DC80029FD034620461C4600F02CFD17F8013B60
:102DD80007A907902046CDE90895CDE90A8302F0B6
:102DE8007FFB0E2EE6D100225C20114601F096FBF7
:102DF8005C2001F0D1FB0CB0BDE8F0870050005218
:102E080000440258F09C000810050024124B026888
:102E18009A4200D07047114AD2F8D43070B523F4E2
:102E2800804302250E4EC2F8D430346D2C4402354E
:102E3800204600F0EFFC034620461C4600F0F2FC5A
:102E48000146204602F08CFC0E2DEED15C20BDE838
:102E5800704001F0AFBB00BF005000520044025860
:102E680010050024014803F029B900BF100500240B
:102E780038B5036871B9026A00F1280500F5AC7429
:102E8800012A0CBF002140218BBB1D4B5722C0F8E3
:102E980058310DE0426A00F1C00500F5E874012AD6
:102EA8000CBF00214021EBB1164B5A22C0F8D0319B
:102EB80000232046C4E901214FF480524FF4806179
:102EC800636262614FF48042C4E903314FF4807356
:102ED800C4E906234FF40033236201F0D1FC58B152
:102EE800FFBEFEE7084B5822C0F8D031E0E7074B99
:102EF8005922C0F85831DBE7C5E92044A56338BD3D
:102F080010000240700002402800024058000240B1
:102F18002DE9F043821D05468BB0031D05F10A011A
:102F28000830CDE9052305F10C02AB69CDE90701AD
:102F38000992002B3DD0EB69B3FA83F84FEA581891
:102F48000123022205AE0AAF4FF006090393CDE92B
:102F5800012356F8044B2B792278934216D02B681C
:102F6800F3B1012B02D1F2B10A230493204600F0F9
:102F780059FC03462046009300F04CFC694602F0D9
:102F8800AFFABE42E5D10BB0BDE8F083697963784A
:102F98009942E4D1B8F1000FF3D02B68002BE0D1AF
:102FA800CDF81090E2E76378022B14BF0A230823B8
:102FB800DBE74FF00108C3E7474A0368934230B59F
:102FC800044689B055D02032934252D0434A9342A6
:102FD80004D02032934201D009B030BD404D414861
:102FE800D5F8E03043F00103C5F8E030D5F8E0301B
:102FF80003F001030393039BD5F8E03043F0080383
:10300800C5F8E030D5F8E03003F008030493049BDA
:10301800D5F8E03043F04003C5F8E030D5F8E030AB
:1030280003F040030593059BD5F8F03043F4000303
:10303800C5F8F030D5F8F03003F400030693069B8A
:10304800FFF766FFD5F8D830216843F00103234A1B
:103058002448C5F8D830891AD5F8D83018BF0121C6
:1030680003F001030793079B09B0BDE83040FFF761
:10307800FFBE1B4D1C48D5F8E03043F01003C5F8DF
:10308800E030D5F8E03003F010030093009BD5F84A
:10309800F03043F48003C5F8F030D5F8F03003F48D
:1030A80080030193019BFFF733FFD5F8D8302168DF
:1030B80043F00103084A0C48C5F8D830891AD5F8F6
:1030C800D83018BF012103F001030293029B09B015
:1030D800BDE83040FFF7CCBE04580140045C014015
:1030E80000440258C007002464050024014801F088
:1030F800A5BE00BFBC060024014801F09FBE00BF6A
:1031080034070024014801F099BE00BF18090024C3
:10311800014801F093BE00BF900900241A4A0368D1
:10312800934210B40BD02032934208D0174A9342EE
:1031380016D02032934213D05DF8044B7047144BDD
:103148000022D3F85442C3F85822002CF4D0D3F804
:103158004802D3E9931223465DF8044B52081847F6
:103168000B4B0022D3F8B044C3F8B424002CE3D0AE
:10317800D3F8AC24D3F8A814D3F8A40452082346EF
:103188005DF8044B184700BF04580140045C014037
:1031980064050024184A0368934210B40BD0203207
:1031A800934208D0154A934217D02032934214D044
:1031B8005DF8044B7047124BD3E994245208C3F8C6
:1031C8005822002CF4D0D3E99201234601EB820166
:1031D80000EB82005DF8044B1847094BD3F8AC2488
:1031E800D3F8B0445208C3F8B424002CE0D0D3F884
:1031F800A814D3F8A404E8E704580140045C01408B
:1032080064050024000000002DE9F04F0C684FF41D
:103218001776754F87B004FB06F6012C07EB060AF4
:10322800C0F800A000F3A0800D468E464FF00008BD
:10323800D44669A3D3E9002369A1D1E90001CDE906
:10324800022306ABCAF8508203EB8403CDE90401DC
:1032580053F810BC53F8083CCAE992880193BEE8B9
:103268000F00ACE80F00BEE80F00ACE80F00019BB0
:103278009EE80300CAF828B0CAF8C0308CE80300FA
:103288002B69042B0CD8DFE803F0737D87910300CA
:103298004FF41773554A03FB04739A64C3F8E0208C
:1032A800AA692B6A002A43D0002B4FF4177308BF72
:1032B800022203FB047318BF0322DA6201221A6395
:1032C800EA696B6A002A40D1191E4FF4177318BFB8
:1032D800012103FB0473C3E931126B69022B05D882
:1032E800434A12F80380434A52F823904FF4177365
:1032F80006F128004246494603FB0474002338447B
:1033080063646363E365C4F8DC30C4F8CC30C4F8A4
:10331800F430C4E90F33C4E91533C4E93533C4E9DB
:103328003B33022304F022FF002849D0FFBEFEE70A
:10333800191E4FF4177318BF012103FB0473C3E967
:103348000B12EA696B6A002ABED0002B4FF4177380
:1033580008BF022203FB047318BF0322C3F8C4206A
:103368000122C3F8C820B8E7012007B0BDE8F08FF4
:103378004FF417734FF4FA5203FB04739A64C3F8BB
:10338800E0208DE74FF417734FF47A5203FB047370
:103398009A64C3F8E02083E74FF417734FF4FA42B6
:1033A80003FB04739A64C3F8E02079E74FF41773BA
:1033B8004BF6803203FB04739A64C3F8E0206FE78E
:1033C80006F1C000022342464946384404F0CEFEC6
:1033D8000028CAD0FFBEFEE704580140045C014043
:1033E80024580140245C0140640500240077010052
:1033F800F89C0008FC9C00080068704770B50468D9
:1034080082B015460E46C4F85032C4E99212069AA4
:10341800C4F85422226A012A9AB211D0294604F12A
:103428002800019204F05EFF636A019A012B10D014
:10343800294604F1C00004F055FF002002B070BD19
:1034480004F12800019204F0DFFF636A019A012B5E
:10345800EED1314604F1C00004F0D6FF002002B0DE
:1034680070BD00BF03681B69042B05D8044A02EB32
:10347800830393ED000A70479FED020A704700BF6F
:10348800089D000800803B470368D3F8580270473E
:10349800704700BF08B500F025FABDE8084001F004
:1034A80005B900BF704700BF00F02EBAF0B5CFB025
:1034B80004464C2200210AA806F0C6FB202200215F
:1034C80002A806F0C1FBBC2200211EA806F0BCFB26
:1034D800022002F011FA2368012B4FF0000352D0AA
:1034E800514A02250193C820D16A504B21F00101AD
:1034F800D162D26A02F0010201929A6942F4404212
:103508009A619B6903F440430193019B474A93697D
:103518009B04FCD546490224002201268B6A082711
:1035280023F0030323438B62052310960426189384
:103538004FF4803316900AA81794199415961A9781
:10354800CDE91B222122CDE91344CDE90A2302F05B
:10355800BDFE00B1FEE73F220323294602A8CDE9BC
:10356800022300220823CDE9042340224023CDE989
:10357800062340234FF48062CDE9082303F0D4F9F1
:103588000346B8B1FEE7294A04250093F020916963
:10359800254B41F440419161926902F44042009206
:1035A800DA6A42F00102DA62DB6A03F0010300938F
:1035B800009BABE70A22202126934FF44015229264
:1035C80080222B914FF4806131931EA823942C9173
:1035D8004FF480512197359164211F962A962091A6
:1035E800CDE92423CDE92F43CDE92D33CDE93B3374
:1035F8004FF48033CDE9334246934FF48072002470
:103608000623439240F2271227931023CDE93E4523
:10361800084CCDE928231E9403F0AAFB00B1FEE76D
:1036280002F090F94FB0F0BD00040058004802586D
:103638000044025809130F032DE9F04104460D46D2
:1036480084B001264FF480774FF00008D1E90001DB
:1036580084E8030000F016F92046FFF727FF00F082
:10366800D3FF4FF040536846ADF800600193364BE6
:103678000397029300F0E6FF4FF040431922684693
:103688008DF80F6001938DF80820ADF80D708DF856
:1036980001608DF80A8000F0D5FF042000F0C2FF19
:1036A80005F02EFA05F02CF92B791BBB6B799BB131
:1036B800BFF34F8FBFF36F8F244B0022C3F8502204
:1036C800BFF34F8FBFF36F8F5A6942F400325A61CC
:1036D800BFF34F8FBFF36F8F0022002369461C484A
:1036E800CDE9002305F0A0F9194805F0FFF904B069
:1036F800BDE8F081154CC4F88480BFF34F8FD4F82F
:10370800803043F6E071C3F3C906C3F34E334FEA82
:10371800431C0CEA0100334640EA8372013BC4F8BB
:1037280060225A1CF8D1ACF1200C1CF1200FF0D10A
:10373800BFF34F8F636943F480336361BFF34F8FE7
:10374800BFF36F8FB2E700BF0E00010300ED00E08A
:103758001C0A002403480023034A0449036005F0B7
:10376800D3BD00BF1C0A00240000002499340008BF
:1037780010B41A4C00221A4BD4F88810194841F496
:103788007001C4F888101968174C41F001011960DC
:103798001A6119680840154918609A61DA611A6255
:1037A8009A62DA621A635A639A63DA631A645A6429
:1037B800186820F4802018601A6623681940B1F14F
:1037C800005F03D20A4B0122C3F80821034B4FF0D4
:1037D80000625DF8044B9A60704700BF00ED00E09E
:1037E800004402587FEDF6EA0010005C0000FFFF7D
:1037F80000800051064B01EB410103EB8101D1F838
:1038080000C04A688B68C0F800C042608360704797
:103818002C9D0008024B027853F82200704700BF25
:10382800AC9D0008024B427833F81200704700BF85
:103838008C9D0008704700BF0F4B1B780BB9012007
:10384800704710B504464FF47A700C4AB0FBF3F396
:103858001068B0FBF3F000F0C1FE0F2C00D808B1DF
:10386800012010BD002221464FF0FF3000F056FE27
:10387800034B00201C6010BD0C0000240400002431
:103888001000002438B50320124D00F035FE124C0C
:1038980002F0AAFF114A12499369C3F30323CB5CD0
:1038A80003F01F0320FA03F30F202B60926902F044
:1038B8000F028A5C02F01F02D3402360FFF7BCFFAF
:1038C80010B10124204638BD0446FFF7B3FF204657
:1038D80038BD00BF0400002408000024004402583A
:1038E8001C9D0008034A044B11681B780B441360A5
:1038F800704700BF200A00240C000024014B186800
:10390800704700BF200A002438B50446FFF7F6FFC9
:103918000546631C02D0044B1B781C44FFF7EEFFDE
:10392800431BA342FAD338BD0C000024014B18688E
:10393800000C70470010005C704700BF806B08B532
:10394800FFF7FAFF08BD00BF836B5A6D12F0500FE6
:103958005A6D10B51DD1196842F400725A650A688B
:1039680012F0080FCA681BD012F4406F0DD1CA6854
:1039780094040AD45A6D22F480725A655A6DD1049F
:1039880003D45A6D42F001025A651846FEF75CFEF0
:1039980010BDD2060AD4DB6CBDE81040DB6C1847BA
:1039A8009007E7D01846FEF74FFEF1E71846FEF7F6
:1039B800F1FE10BD806B08B5436D43F040034365CD
:1039C800836D43F004038365FEF7E4FE08BD00BF82
:1039D800F0B5002283B0019290F85020012A00F03F
:1039E8001C81034601201A6883F850009468640714
:1039F80000F18A800C68C4F31305002D40F08F8015
:103A0800C4F38464A0404D684FF01F0ED6694FEA96
:103A1800951C30430CF00C0CD06105F01F0002F12E
:103A2800300584400EFA00FE5CF8050020EA0E001E
:103A380004434CF80540906840076ED4956815F02B
:103A4800080547D10C68072002F11406B94F4FEA60
:103A5800D45CC4F304540CF0040C00FA04FE886827
:103A680000FA04F45CF8060020EA0E0020434CF843
:103A78000600386800F07040B0F1805F00F0C58043
:103A8800D068D668C70600F1E880C6F382064869A0
:103A9800760000FA06F60F69042F00F0C18002F1E3
:103AA8006004086854F827C000F0F8400CF0004C97
:103AB80040EA0C00304344F82700487E0E6901288C
:103AC80054F8260008BF4FF0004520F00040054399
:103AD80044F826509068C40714D4CE68086806F0E5
:103AE8001807954CD2F8C050FC40C0F313070440A7
:103AF80025EA07052C43C2F8C040904CA64246D0A0
:103B0800002816DB002003E05A6D42F020025A65B7
:103B1800002283F8502003B0F0BD9068DAE794FAE9
:103B2800A4F5B5FA85F5C4F3846405F01F05A8402B
:103B380069E783498A4200F0B68001F580718A42BC
:103B480000F0B1807F4D804CA968A46801F0E07650
:103B5800E44304F00104002C00F0B4807B4CA04244
:103B680000F0FC807A4CA04200F01A81794CA04207
:103B7800C8D14902C6D474498A42C3D1AA68002070
:103B880022F0E072324342F48002AA60C0E7002FBC
:103B98006AD090FAA0F4B4FA84F4013404F01F0453
:103BA800092C00F2A48090FAA0F4B4FA84F490FAF4
:103BB800A0F5B5FA85F5013401260135A40605F00E
:103BC8001F0504F0F84406FA05F52C4390FAA0F016
:103BD800B0FA80F0304400F01F0000EB4000000510
:103BE8002043C60D02F11405C0F30450072406F063
:103BF800040604FA00F7745924EA07048F6807FAE0
:103C080000F02043705108687AE7D6684869C6F31F
:103C18008206760000FA06F63DE7022003B0F0BD02
:103C2800106E0C6800F0F840A506B0EB846F30D039
:103C3800506E00F0F840854226D0906E00F0F840B3
:103C480085422BD0D06E00F0F84085427FF442AF19
:103C5800D06E20F00040D0663CE77608486906F050
:103C6800080600FA06F616E7800E441C04F01F0644
:103C7800092E2DD8A406012004F0F844B0400443CE
:103C880006EB46000005ABE7506E20F0004050669A
:103C9800D3E7106E20F000401066C9E7906E20F060
:103CA80000409066CEE7264C2B4D04F58074A96839
:103CB80054F8F86CA468344301F0E076E44304F067
:103CC800010448E75A6D012042F020025A651FE7B7
:103CD80006EB4600A50601241E3805F0F84504FA4F
:103CE80006F60005354340F00070284379E790FA5E
:103CF800A0F5B5FA85F590FAA0F4B4FA84F4013584
:103D080001260134AD0604F01F0405F0F84506FA53
:103D180004F4254390FAA0F4B4FA84F4344404F08B
:103D28001F0404EB4404A4F11E00000540F00070D9
:103D3800DBE700BF0010005CFFFF0F000000FF473B
:103D4800002002400063025800600258000084CB43
:103D5800000052C70000B8CF0023024008023FF518
:103D6800D1AE17498A427FF4CDAE164AA9681268C7
:103D7800154821F0E07192093143A0FB020241F499
:103D880000019209A96052000192019A002A3FF4A9
:103D9800B9AE019A013A0192019A002AF9D1B1E625
:103DA80011F080707FF4AEAE05498A427FF4AAAE66
:103DB800AA6822F0E072324342F08072AA60A7E655
:103DC8000060025804000024632D3E0503689A68C9
:103DD800D20701D5002070479968214A114270B571
:103DE800044608D0636D012043F010036365A36D9A
:103DF8000343A36570BD99681A4A0A4042F001025C
:103E08009A60FFF77BFD2368174A054693421ED048
:103E180002F5807293421AD0144A9268114E0AE051
:103E28009A68324042F001029A60FFF767FD401B32
:103E38000228D7D823681A68D2070FD49A68D107FE
:103E4800EED5FFF75BFD401B0228F3D9CAE7084A05
:103E58009268D006E2D0074A9342DFD1002070BDB5
:103E68003F000080C0FFFF7F00200240006302582F
:103E780000230240002102402DE9F0413A4D04465A
:103E880000680F461646A84219D0384B984216D0FB
:103E9800374DAB688068420716D494F85020012A41
:103EA80012D003F01F080122B8F1090F84F850203E
:103EB8000DD90023012084F85030BDE8F0812D4D44
:103EC800AB6880684207E8D50220BDE8F08140F27F
:103ED800212323FA08F3DB4313EA0205E9D120463C
:103EE800FFF774FF002839D1626D234B2168134016
:103EF80043F480736365B8F1000F02D01B4B9942FD
:103F080003D0636D23F480136365636D13F48053EA
:103F180028D0A36D23F00603A365E06C3346174D44
:103F28003A464031C563164D0564164DC5641C25D7
:103F380041F8405C002584F8505051F83C5C45F04D
:103F4800100541F83C5C00F059FE22680E4B916860
:103F58000B4043F004039360BDE8F08184F85050AF
:103F6800BDE8F081A365D8E70020024000210240A7
:103F78000063025800230240FEF0FFFF5139000899
:103F880045390008BD390008C0FFFF7F38B5036810
:103F98009A68910702D59B68002038BD9A68D207B5
:103FA80023D59A68044602F00D02012A08D0636DF1
:103FB800012043F010036365A36D0343A36538BD77
:103FC800986803210A4A024042F002029A60196086
:103FD800FFF794FC054604E0FFF790FC401B02281D
:103FE800E5D823689B68DB07F6D4002038BD00BFFE
:103FF800C0FFFF7F38B5574A04460368934226D06E
:1040080002F58072934222D0534B9B6813F4403FD1
:1040180022D002F0A3FD63680546B3F5003F00F027
:104028008880B3F5403F70D0B3F5803F00F08180C1
:10403800FFF77CFC41F2030398422DD8474B9D4281
:104048005DD92268936843F48073936038BD444B0C
:104058009B6813F4403FDCD14FF4002003F000FECE
:1040680063680546B3F5101F6DD008D8B3F5E01F97
:1040780055D01AD9B3F5001FDAD14509D8E7B3F5F9
:10408800201F4AD0B3F5301FD2D1FFF74FFC41F2C1
:104098000303984233D92D0A324B9D421DD822681A
:1040A800936823F44073936038BDB3F5801F06D03E
:1040B8000AD9B3F5A01F02D0B3F5C01FB8D19B0C25
:1040C8005B00B5FBF3F5B3E7B3F5002FF7D023F4A6
:1040D8000022B2F5802FF2D0AAE7234B234A2B44C3
:1040E80093421ED9224B234A2B4493422268936859
:1040F8002BD823F4407343F40073936038BD2268CF
:10410800936823F48073936038BD8508FFF70EFC2D
:1041180041F203039842BFD890E7C50988E705092B
:1041280086E72268936823F4407343F480739360AE
:1041380038BD1B0CB5FBF3F5FFF7F8FB41F20303A1
:104148009842A9D87AE7850972E743F440739360E7
:1041580038BD00BF0020024000630258002D310125
:1041680000230240105E5F00EFA1A0FF0F5E5F001A
:10417800DF4341FF1FBCBE0030B5002383B001936D
:10418800002800F0D080456D0446002D00F0BA806C
:10419800226893689B0003D59168714B0B4093602C
:1041A8009368DD0015D46F4B90686F491B68014018
:1041B8006E489B0941F08051A0FB030391609B0965
:1041C8000193019B2BB1019B013B0193019B002BA8
:1041D800F9D19368D80024D4636D012543F0100306
:1041E8006365A36D2B43A365936813F0040F636D98
:1041F8001DD1D9061BD4636D23F4817343F00203E8
:1042080063659368DB0728D4594B9A4217D003F5A6
:1042180080739A4213D0574B9B68D9071DD4564ACE
:1042280015E09368002513F0040F636DE1D0636D0A
:10423800012543F010032846636503B030BD4C4A9E
:104248004E4B92689B681343D80706D44C4A936830
:10425800616823F47C130B439360FFF767FB41F21B
:104268000303A1689842237F52D894F815C01A0412
:10427800206B42EA4C3202430A43012B03D1236AE2
:10428800013B42EA4342636A23B103F47873A16AAB
:104298000B431A4323683B49D86801400A43DA6054
:1042A8009A6812F0040F9A681CD112071AD4D868B9
:1042B800354A217D024042EA8132E16A0A43DA60E6
:1042C80094F83820012A3AD01A6922F001021A61BA
:1042D8001A692046616B22F070420A431A61FFF79F
:1042E80089FE2368E268012A21D01A6B22F00F02A6
:1042F8001A63636D284623F0030343F001036365E3
:1043080003B030BDFEF74EF9A56584F850503FE77D
:104318001029AAD1617D1A0442EA4132216B0A436D
:1043280042F01C02A9E70125284603B030BD196BED
:10433800A26921F00F01013A0A431A63D9E7D4E9C7
:10434800102118690A43114901400A43A16C0A4324
:10435800E16B42EA014242F001021A61B8E700BF8C
:10436800C0FFFF5F04000024C0FFFF6F632D3E0500
:1043780000200240006002580063025800210240F9
:104388000023024003C0F0FFFCBFFFFF1EF800FC43
:10439800F0B5002383B0019390F85030012B40D042
:1043A800012304460E46154680F85030FFF7EEFD0F
:1043B800E8B9676D05F080421B4B06F480311B4D50
:1043C8003B401B4F43F00203636523689E683540FA
:1043D80015430D4345F000459D609A68002A0FDBA0
:1043E800636D23F0030343F00103636503E0636D2A
:1043F80043F010036365002384F8503003B0F0BD28
:10440800019A01320192019ABA42E6D9636D0022FB
:10441800012023F0120384F8502043F01003636551
:10442800ECE7022003B0F0BDFDEEFFFFC0FFFE3F4A
:10443800FF955A55F0B490F850200E68012A49D0DB
:104448000346294A01201C6883F85000944208D08A
:104458005A6D002142F0200283F850105A65F0BCD2
:104468007047224DAA6852070AD5A2685A6D0120E2
:1044780042F020025A65002283F85020F0BC7047B1
:10448800A06810F00400F1D1C6B1DFF868C04F6829
:10449800DCF8082022F440423A43CCF80820A4680B
:1044A800AA682243D40713D48A68DCF80810164394
:1044B8000F4A0A401643CCF80860DCE70D498A68C1
:1044C80022F440428A60A068AA680243D00704D553
:1044D8000020D0E70220F0BC70478C683046044AC0
:1044E80022408A60C7E700BF002002400021024046
:1044F800E0F0FFFF0023024006494FF6FF0C0002E0
:10450800054BCA6800F4E06002EA0C02104303435A
:10451800CB60704700ED00E00000FA051B4BDB683C
:10452800C3F3022300B5C3F1070E03F1040CBEF177
:10453800040F28BF4FF0040EBCF1060F1AD9033B35
:104548004FF0FF3C0CFA03FC22EA0C024FF0FF3C50
:1045580000280CFA0EFC21EA0C0101FA03F141EAE9
:1045680002010ADB09010A4BC9B2034483F80013AC
:104578005DF804FB00221346E8E700F00F0009018C
:10458800044BC9B2034419765DF804FB00ED00E062
:1045980000E100E0FCEC00E0002807DB00F01F0170
:1045A80001234009024A8B4042F82030704700BF7F
:1045B80000E100E000280DDB4309012200F01F00A4
:1045C8000549203302FA00F041F82300BFF34F8F6A
:1045D800BFF36F8F704700BF00E100E0431EB3F1E7
:1045E800807F0CD24FF0E022002006494FF0F00CFB
:1045F8005361072381F823C090611361704701203C
:10460800704700BF00ED00E0BFF35F8F044B00214F
:104618005A6A22F480325A62C3F89410704700BF75
:1046280000ED00E0064B40F00100C3F894005A6A20
:1046380042F480325A62BFF34F8FBFF36F8F7047D7
:1046480000ED00E0174A4378C2F89830017821B3AA
:10465800436800B5C2F89C30C37A90F80CC01B06BA
:1046680090F80FE043EA0C7390F80AC00B43817B83
:1046780043EACC4390F80DC043EA8C4390F809C054
:1046880043EA4143017A43EA0E4343EA0C2343EAEF
:104698004103C2F8A0305DF804FBC2F89C10C2F8D0
:1046A800A010704700ED00E0704700BF08B5FFF7A5
:1046B800FBFF08BD0268344B344930B4344D354CE7
:1046C800AA4218BF9A420CBF012300238A4208BF9E
:1046D80043F001033031A24208BF43F001033034F4
:1046E8008A4208BF43F001033031A24208BF43F0B9
:1046F800010330348A4208BF43F0010301F55C71BD
:10470800A24208BF43F0010304F55C748A4208BF63
:1047180043F001033031A24208BF43F001033034B3
:104728008A4208BF43F001033031A24208BF43F078
:10473800010330348A4208BF43F001033031A242FA
:1047480008BF43F001038A4208BF43F0010313B9CD
:10475800114B9A4213D1D3B21049114C103BA1FB13
:1047680003515F2B0F4BC1F3021103EA0203615C93
:1047780088BF0433C1658365184630BC704722F092
:10478800FF038365F8E700BF1000024040000240C5
:104798002800024058000240B8040240ABAAAAAA66
:1047A800DC9D000800FCFFFF0368294A294930B452
:1047B800294D2A4CAB4218BF93420CBF012200225C
:1047C8008B4208BF42F001022831A34208BF42F0E1
:1047D800010228348B4208BF42F001022831A3426B
:1047E80008BF42F001028B4208BF42F0010212B931
:1047F8001B4A934213D1DBB21A4C1B4A0121083BD6
:104808001A4DA4FB0343456602EB1312C3F30413CA
:10481800920001FA03F30266836630BC7047DAB28D
:104828001349144C1944103AA829A4FB02234FEA4F
:10483800131300D80833104A03F01F0501210F4C49
:104848001A44A9404466920081660266E5E700BF03
:1048580008540258305402581C5402584454025800
:1048680094540258CDCCCCCC0096001680580258EF
:10487800F0FBFDBFABAAAAAA008200108008024084
:1048880070B50446FFF73AF8002C00F0C68023689C
:104898000546954A934248D01832934245D0303263
:1048A80092498B4218BF934201F130010CBF01229B
:1048B80000228B4208BF42F0010218318B4208BF28
:1048C80042F0010218318B4208BF42F00102183150
:1048D8008B4208BF42F0010201F556718B4208BFB6
:1048E80042F0010218318B4208BF42F00102183130
:1048F8008B4208BF42F0010218318B4208BF42F0D8
:10490800010218318B4208BF42F0010218318B4274
:1049180008BF42F0010218318B4208BF42F0010281
:104928001AB9734A934240F0F5800222002184F8B4
:10493800352084F834101A6822F001021A6005E064
:10494800FEF7DCFF431B052B40D823681A68D10704
:10495800F6D4D4E9022521692A43A0691D680A43CF
:1049680061690A43E16902430A4362492940256AA9
:104978002A430A43616A04292FD01A605A6922F02F
:104988000702114359612046FFF794FEE26D3F2369
:1049980002F01F02934083602046FFF705FFA368DB
:1049A800802B3CD06368A06EDAB2013BD4E9185181
:1049B800072B2A60486026D90023C4E91B336367A4
:1049C80000200123606584F8353070BD2022032360
:1049D8000120626584F8353070BDD4E90B51294354
:1049E8000A431A605969A26A21F00701114341F08C
:1049F8000401002DC6D000284FD1012A6ED032F014
:104A08000202BFD151E0501E072810D9626FD4E9C5
:104A18001B31002018604A60D2E7012070BD0023D6
:104A2800A16ED4E91802636003605160C4E721688D
:104A3800314B324DA94218BF994205F114050CBFFC
:104A480001230023A94208BF43F001031435A942FA
:104A580008BF43F001031435A94208BF43F001031E
:104A68001435A94208BF43F001031435A94208BF11
:104A780043F001033BB9224B994204D0214B224910
:104A880013449B0003E0214B214913449B0001225E
:104A98008240C4E91B316267BBE7B0F5005F0ED006
:104AA800022A05D9032A7FF46DAFEA017FF56AAFC0
:104AB800012340221846626584F8353070BD032A08
:104AC8003FF660AF01A050F822F000BFB94A0008D5
:104AD800B34A0008B94A0008E54A0008B5F1C07FA2
:104AE8007FF450AFE4E700BF1000024040000240EE
:104AF800B80402403F8010FE085402581C54025863
:104B0800945402583F820010400902403F96001614
:104B180040590258324A33483349834218BF9342B6
:104B280000F128000CBF012200228B4208BF42F08E
:104B380001022831834208BF42F0010228308B422B
:104B480008BF42F001022831834208BF42F0010247
:104B58008B4208BF42F0010212B9244A934238D16D
:104B680002220021224D84F8341084F835201A6876
:104B78001540A268402A2AD0802A0CBF4FF48040F2
:104B88000846266AD4E90312D20842EAD1026169CA
:104B980042EAD102A16942EAD102E16942EAD102BC
:104BA800144942EA161219442A4302431248A0FB48
:104BB800010120461A600B099B00E365FFF77AFDA7
:104BC800E26D012302F01F0293404360E4E61020E7
:104BD800D7E7402203230120626584F8353070BD91
:104BE800085402581C54025830540258945402581D
:104BF8000F00FEFFF8ABFDA7CDCCCCCC002800F011
:104C0800BC80844690F83400012800F0B880012068
:104C18002DE9F0419CF835408CF83400844208D0E6
:104C280000224FF400638CF83420CCF85430BDE8EF
:104C3800F0810220DCF800507A4C8CF83500002016
:104C4800794ECCF854007948854218BFA54200F146
:104C580018000CBF01240024854208BF44F0010459
:104C68001830854208BF44F001041830854208BF57
:104C780044F001041830854208BF44F0010400F5EF
:104C88005670854208BF44F001041830854208BFB9
:104C980044F001041830854208BF44F0010418307C
:104CA800854208BF44F001041830854208BF44F02B
:104CB80001041830854208BF44F0010418308542C9
:104CC80008BF44F001041830854208BF44F00104CD
:104CD800A0F59560B54218BF8542DCF86C600CBF42
:104CE8000120002054EA0008286820F0010028600C
:104CF800DCF86400DCF86840DCF85870446040D0A8
:104D080016B1DCE91C044460DCF85C004FF03F0E8F
:104D180000F01F000EFA00F0B860286820F4802028
:104D280028606B60DCF80830402B23D0A960EA606B
:104D38002B6823F01E0343F016032B60DCF8403089
:104D48001BB12B6843F008032B60DCF860301A684D
:104D5800D20303D51A6842F480721A601EB1336810
:104D680043F4807333602B68002043F001032B6009
:104D7800BDE8F081AA60E960DAE701207047022007
:104D8800704716B1DCE91C0444602948DFF8A8E044
:104D9800754518BF85420EF1140E0CBF0120002086
:104DA800754508BF40F001000EF1140E754508BFA7
:104DB80040F001000EF1140E754508BF40F00100E7
:104DC8000EF1140E754508BF40F001000EF1140EE7
:104DD800754508BF40F0010010B9164885420ED14C
:104DE800DCF85C0000F01F0E012000FA0EF078607D
:104DF8006B60DCF80830402B10D0A960EA602B68A3
:104E080023F00E0343F00A032B60DCF84030002B3C
:104E18009BD02B6843F004032B6096E7AA60E960F7
:104E2800EDE700BF40000240280002405800024061
:104E380008540258945402581C5402582DE9F0435F
:104E480000229C4B83B09C4E1D68814601920368EA
:104E58009A4A846D934218BFB342276808BF012657
:104E6800216818BF002645D018329548834218BFDC
:104E7800934200F118000CBF01220022834208BFB0
:104E880042F001021830834208BF42F00102183094
:104E9800834208BF42F001021830834208BF42F043
:104EA800010200F55670834208BF42F00102183033
:104EB800834208BF42F001021830834208BF42F023
:104EC80001021830834208BF42F0010218308342C1
:104ED80008BF42F001021830834208BF42F00102C5
:104EE8001830834208BF42F001021AB9754A93424A
:104EF80040F05082D9F85C10082201F01F0C02FA29
:104F08000CF2174240F0888127FA0CF2D2070CD530
:104F18005A69100609D5012202FA0CF2A260D9F8E2
:104F2800542042F00202C9F854204FF0040E0EFA41
:104F38000CF038425BD0002E4FD1634ADFF88081F5
:104F4800434518BF934208F118080CBF01220022FC
:104F5800434508BF42F0010208F11808434508BF5D
:104F680042F0010208F11808434508BF42F0010267
:104F780008F11808434508BF42F0010208F55678C1
:104F8800434508BF42F0010208F11808434508BF2D
:104F980042F0010208F11808434508BF42F0010237
:104FA80008F11808434508BF42F0010208F1180843
:104FB800434508BF42F0010208F11808434508BFFD
:104FC80042F0010208F11808434508BF42F0010207
:104FD8001AB93C4A934240F019821A68920706D5DA
:104FE800A060D9F8542042F00402C9F854201022D5
:104FF80002FA0CFC1CEA070F6CD0002E45D1324A8D
:105008002F4EB34218BF934206F118060CBF012277
:105018000022B34208BF42F001021836B34208BF6B
:1050280042F001021836B34208BF42F001021836B6
:10503800B34208BF42F0010206F55676B34208BFF4
:1050480042F001021836B34208BF42F00102183696
:10505800B34208BF42F001021836B34208BF42F01B
:1050680001021836B34208BF42F001021836B342B3
:1050780008BF42F001021836B34208BF42F00102ED
:105088001AB9104A934240F0C9811A68100721D50D
:10509800C4F808C01A68560300F14C811A68D20592
:1050A80003D41A6822F008021A60D9F840308BB18C
:1050B8000CE000BF04000024100002402800024059
:1050C80058000240B8040240400002404846984751
:1050D800D9F85C1001F01F0120268E403E4268D0AE
:1050E800D9F80020A54BA64FBA4218BF9A4207F13B
:1050F80018070CBF01230023BA4208BF43F001037D
:105108001837BA4208BF43F001031837BA4208BF3C
:1051180043F001031837BA4208BF43F001031837B8
:10512800BA4208BF43F001031837BA4208BF43F038
:10513800010307F55677BA4208BF43F00103183751
:10514800BA4208BF43F001031837BA4208BF43F018
:1051580001031837BA4208BF43F001031837BA42AF
:1051680008BF43F001031837BA4208BF43F00103F0
:105178001837BA4208BF43F001031BB9814B9A4262
:1051880040F062811368DB0613D5A66099F83530C4
:10519800042B136800F0AE8013F4802F136800F01E
:1051A800D3801C0340F1DE80D9F83C300BB148466F
:1051B8009847D9F85430002B00F0B980D9F854300A
:1051C800D8071FD5D9F80020042189F835101368AD
:1051D80023F0010313606C4BA3FB0535AD0A02E015
:1051E8001368D90704D5019B0133AB420193F7D962
:1051F800002389F834301368DB074CBF03230123ED
:1052080089F83530D9F84C30002B00F090804846AA
:1052180003B0BDE8F0431847186840070AD5186876
:1052280020F004001860A260D9F8542042F001026E
:10523800C9F8542027FA0CF2D2077FF576AE534A04
:105248005348834218BF934200F130000CBF01223B
:105258000022834208BF42F001021830834208BF8F
:1052680042F001021830834208BF42F001021830B0
:10527800834208BF42F0010200F55670834208BF1E
:1052880042F001021830834208BF42F00102183090
:10529800834208BF42F001021830834208BF42F03F
:1052A80001021830834208BF42F0010218308342DD
:1052B80008BF42F001021830834208BF42F00102E1
:1052C8001830834208BF42F00102002A7FF420AE62
:1052D800002E7FF41DAE1A68042202FA0CF23A423C
:1052E80040F09480102202FA0CFC17EA0C0F3FF4ED
:1052F800F1AE84E623F016031360536923F08003AC
:105308005361D9F840309BB3136823F00803136046
:105318003F230025012203FA01F1D9F85030A1609A
:1053280089F8345089F83520002B7FF470AF03B02A
:10533800BDE8F0831B6818037FF5B7AED9F848308D
:10534800002B7FF4C3AEC5E613F480737FF42CAF53
:10535800116821F010011160012289F8343089F8B0
:10536800352021E7D9F84430002B7FF420AF20E71F
:10537800D9F84830002BC7D1CAE700BF1000024057
:1053880028000240B8040240B5814E1B5800024074
:10539800400002404E4A4F4DAB4218BF934205F1C0
:1053A80014050CBF01220022AB4208BF42F00102E3
:1053B8001435AB4208BF42F001021435AB4208BFB6
:1053C80042F001021435AB4208BF42F00102143525
:1053D800AB4208BF42F0010212B93F4A9342A6D13C
:1053E800D9F85C5004261A6805F01F05AE400E4235
:1053F80019D0570717D5100466604BD5D1034FD481
:10540800D9F84830002B7FF402AF90E71A681022D1
:1054180002FA0CFC17EA0C0F3FF45CAE1A6852074C
:105428007FF558AE34E60226AE400E4211D09707FB
:105438000FD56660140439D5D00343D4D9F8443065
:10544800002B7FF4E4AE72E713689F077FF5B1AED7
:105458009BE60826AE400E423FF469AF11077FF580
:1054680066AF1A68002122F00E021A600123D9F8EB
:105478004C2003FA05F56560C9F8543089F83410F2
:1054880089F83530002A3FF452AF484603B0BDE8EA
:10549800F0431047920603D41A6822F004021A60F7
:1054A800D9F84030002B7FF4B2AE40E712F020026A
:1054B80008D11968012421F00A01196089F83420FB
:1054C80089F83540D9F83C30002B7FF4A0AE2EE7A0
:1054D800085402581C54025894540258406D70479E
:1054E8002DE9F04F0D6883B0002D00F0D580002322
:1054F800DFF8688201229A4012EA050C00F0C780A2
:105508004E6826F01009B9F1020F40F0C88003F088
:1055180007044FEAD30E4FF00F0A4FEA840900EB55
:105528008E0E0AFA09FADEF8204024EA0A0A0C6903
:1055380004FA09F406F0030944EA0A04CEF8204004
:105548004FEA430E0324D0F800A009FA0EF904FA32
:105558000EF42AEA040AE44349EA0A09C0F800906A
:10556800D0F808A0CF6804EA0A0A07FA0EF949EA4F
:105578000A09C0F80890C6F30019D0F804A009FA7F
:1055880003F92AEA020249EA02024260C268F70005
:1055980004EA02048A6802FA0EF242EA0402C260CD
:1055A80075D5644C23F0030E03F00309D4F8F420F6
:1055B800C6444FEA890942F00202C4F8F420D4F83C
:1055C800F42002F002020192019A0F22DEF808404C
:1055D80002FA09F224EA0202574CA04225D004F547
:1055E8008064A0427BD0554CA0427ED0544CA0424F
:1055F8006FD0544CA04200F08480534CA04200F07D
:105608008680524CA04276D0514CA04200F0858052
:10561800504CA04200F087804F4CA0420CBF092498
:105628000A2404FA09F942EA0902CEF808204FF0E0
:10563800B0426FEA0C0EF403D2F880204FF0B04469
:1056480054BF0EEA02024CEA0202C4F88020B203F8
:10565800D4F884404FF0B04254BF0EEA04044CEA38
:105668000404F702C2F8844014684FF0B04254BFF3
:105678000EEA04044CEA04041460B40252684FF0C1
:10568800B04454BF0EEA02024CEA020262600133DF
:1056980035FA03F27FF42EAF03B0BDE8F08F4FEA7E
:1056A800430E0324D0F800B006F0030A04FA0EF4FF
:1056B80009F1FF390AFA0EFA2BEA040BB9F1010FC6
:1056C8006FEA04044AEA0B0AC0F800A03FF65EAF8E
:1056D80046E7032404FA09F942EA0902A5E7012486
:1056E80004FA09F942EA09029FE7022404FA09F9CF
:1056F80042EA090299E7062404FA09F942EA09028A
:1057080093E7042404FA09F942EA09028DE705241B
:1057180004FA09F942EA090287E7072404FA09F9B1
:1057280042EA090281E7082404FA09F942EA09026F
:105738007BE700BF004402580000025800080258E6
:10574800000C0258001002580014025800180258A1
:10575800001C025800200258002402580004005877
:10576800002900F0A88000232DE9F04FDFF86891A8
:1057780083B0DFF86881DFF868A1DFF868B14FF01F
:10578800010E0EFA03F212EA010C6FD023F00305A2
:1057980003F003040F2640454D444FEAC404AF68A4
:1057A80006FA04F607EA0607019721D0504566D0A5
:1057B800584567D0434FB8426ED0434FB84270D077
:1057C800424FB84263D0424FB84256D0414FB842D8
:1057D80072D0DFF814E1704568D0DFF810E1704549
:1057E80014BF4FF00A0E4FF0090E0EFA04F400E051
:1057F8000024019FA74219D1AC6824EA06064FF09D
:10580800B044AE60D4F8805025EA0C05C4F8805046
:10581800D4F8845025EA0C05C4F88450256825EA94
:105828000C052560656825EA0C05656003255C00A4
:1058380003F007070F2605FA04F40568BF0025439F
:1058480006FA07F70560DD0800EB85052E6A26EAEB
:1058580007062E62856825EA04058560456825EAFD
:1058680002024260C26822EA0404C460013331FAC9
:1058780003F284D103B0BDE8F08F4FF0060E0EFAA4
:1058880004F4B6E74FF0020E0EFA04F4B1E74FF055
:10589800050E0EFA04F4ACE74FF0030E0EFA04F40A
:1058A800A7E74FF0040E0EFA04F4A2E74FF0080E33
:1058B8000EFA04F49DE770474FF0070E0EFA04F451
:1058C80097E700BF000C0258001002580014025855
:1058D80000180258001C0258000400580000025822
:1058E80000040258000802580020025800240258F8
:1058F80002B909048161704738B5114BDA6852075B
:1059080004D4DB6803F00703834214D10C4CE3682A
:1059180023F007031843E060FDF7F0FF054605E0B4
:10592800FDF7ECFF401BB0F57A7F06D863689B044F
:10593800F6D5002038BD012038BD032038BD00BF92
:1059480000480258024AD36843F08073D360704716
:105958000048025870B44D6A15B1B2F1406F3AD19F
:105968008B691BB30C6A002C4CD08E680068C6612A
:10597800CE69002E69D02B4313432343CC6A3343AB
:1059880023430C6B23434C6B23430C692343CC68A0
:1059980023430C6823434C69B2F1406F43EA8443C4
:1059A800436165D04B6870BC836170470B6ABBB1BB
:1059B80000682B438C68CE69C461002E6BD01343FA
:1059C800CC6A334323430C6B23434C6B23430C694E
:1059D8002343CC68DEE78B6A0468013B2361BFE799
:1059E800CB69002B66D1002D42D0CB6A0C6B2B43C0
:1059F800006813434A6923434C6B234343EA8243B9
:105A0800436135E0CC6945EA030C002C32D00368C9
:105A18004CEA0200B2F1406F40EA0400CC6A40EA66
:105A280004000C6B40EA04004C6B40EA0400CC68AC
:105A380040EA04000C6840EA04004C6940EA8440EB
:105A4800586115D04A689A6112E045EA030C0D695D
:105A58004CEA0203CA6A23431343D1E90C422343A5
:105A68000C6813434A692B43234343EA8243436147
:105A780070BC7047CC6A4CEA020300682343D1E942
:105A88000C4223430C6813434A69234343EA824385
:105A980070BC43617047CC6A13432343D1E90C427D
:105AA80023431343D1E90442234343EA824370BCAE
:105AB800436170472B43CD6A0C6B134300682B433B
:105AC80023434C6B84E700BF70B50446FDF716FF0F
